:1000000005C100000C94BD100C94E8100C94131161
:100010000C943E110C9469110C9494110C94BF1122
:100020000C94EA1124C1000022C1000020C100008C
:100030001EC100001CC100001AC1000018C1000050
:1000400016C1000014C1000012C1000010C1000060
:100050000EC100000CC100000AC100000C94151272
:1000600006C100000C94B6150C94EC1500C10000FC
:10007000FEC00000FCC00000FAC00000F8C0000094
:10008000F6C00000F4C00000F2C00000F0C00000A4
:100090000C9442160C947816EAC00000E8C00000E8
:1000A000E6C00000E4C00000E2C00000E0C00000C4
:1000B000DEC00000DCC00000DAC00000D8C00000D4
:1000C000D6C00000D4C000000C94250D0C94CE16B0
:1000D0000C940417CCC000000C945A170C94901781
:1000E000C6C0000000000A0B02090C0D0E08070331
:1000F00004010000000000000000000000000000FB
:1001000000000000000000000000000000000000EF
:1001100012111000000000000000000000000000AC
:100120000000000000000000000001021020200874
:100130000810204010204080020102010804020142
:1001400001020408102040808040201008040201B1
:10015000800402018040201008040201080402010A
:100160000102040810204080010204081020408091
:1001700005050505070508080808020202020A0A23
:100180000808040404040101010101010101030341
:10019000030303030303040707070C0C0C0C0C0CEC
:1001A0000C0C0202020206060606060606060B0BE9
:1001B0000B0B0B0B0B0B000020002300260029006B
:1001C0002C002F003200000100000301060109018C
:1001D00000002200250028002B002E0031003400F2
:1001E00002010000050108010B01000021002400AC
:1001F00027002A002D003000330001010000040117
:1002000007010A011516A1162D17B91711241FBED3
:10021000CFEFD1E2DEBFCDBF00E00CBF12E0A0E027
:10022000B2E0EEE7F0E300E00BBF02C007900D92F2
:10023000A83CB107D9F725E0A8ECB2E001C01D92B7
:10024000AD3CB207E1F711E0C6E0D1E000E006C046
:1002500021970109802FFE010E943518C230D10775
:1002600080E00807A9F70E948B0D0C943D18C8CEBA
:10027000611102C00C94FB136130E1F362E0FACF2C
:10028000662319F061E00C94371460E0FCCFCF9343
:10029000DF93EC0170E060E06C177D070CF5072E32
:1002A000000C880B990B0E94D90E20E030E0A901C8
:1002B0000E94C30D20E030E0A9010E94C30D20E0A0
:1002C00030E040E450E40E94C30D20E030E040E420
:1002D00050E40E94C20D0E94A60E6F5F7F4FDCCFDC
:1002E000DF91CF910895CF93DF938091D8029091C1
:1002F000D9020E946414EC018091DE029091DF0229
:10030000C6DF8091DA029091DB020E9464140197AB
:1003100071F48091DC029091DD02219771F40196D5
:100320009093DD028093DC02DF91CF91089580915C
:10033000DC029091DD02CD2B91F30197F1CFCF93A9
:10034000DF938091D0029091D1020E946414EC015D
:100350008091D6029091D7029ADF8091D20290913B
:10036000D3020E946414019771F48091D402909199
:10037000D502219771F401969093D5028093D4020F
:10038000DF91CF9108958091D4029091D502CD2B29
:1003900091F30197F1CFCF93DF938091C8029091B1
:1003A000C9020E946414EC018091CE029091CF02A8
:1003B0006EDF8091CA029091CB020E946414019773
:1003C00071F48091CC029091CD02219771F4019645
:1003D0009093CD028093CC02DF91CF9108958091CC
:1003E000CC029091CD02CD2B91F30197F1CFCF9319
:1003F000DF938091D2029091D3020E946414EC01A9
:100400008091D6029091D70242DF8091D0029091E4
:10041000D1020E946414019771F48091D4029091EA
:10042000D502CD2B71F401969093D5028093D4021E
:10043000DF91CF9108958091D4029091D5022197B8
:1004400091F30197F1CFCF93DF938091CA029091FE
:10045000CB020E946414EC018091CE029091CF02F5
:1004600016DF8091C8029091C9020E94641401971E
:1004700071F48091CC029091CD02CD2B71F4019654
:100480009093CD028093CC02DF91CF91089580911B
:10049000CC029091CD02219791F30197F1CFCF93A8
:1004A000DF938091DA029091DB020E946414EC01E8
:1004B0008091DE029091DF02EADE8091D802909175
:1004C000D9020E946414019771F48091DC0290912A
:1004D000DD02CD2B71F401969093DD028093DC0256
:1004E000DF91CF9108958091DC029091DD022197F8
:1004F00091F30197F1CF0F931F93CF93DF938C016B
:10050000EC0183E0CC0FDD1F8A95E1F7C853DD4F86
:10051000798368835B834A838881998160E00E9444
:10052000FB138A819B8160E00E94FB138881998183
:1005300061E00E9437148A819B8161E00E94371438
:1005400001301105D9F10230110509F466C0012B03
:1005500009F092C08091C8029091C902029784313B
:10056000910530F580569D4FFC018081082E000CCE
:10057000990B41E050E063E272E00E9444108091E8
:10058000CA029091CB02029784319105A0F4805663
:100590009D4FFC018081082E000C990B41E050E03A
:1005A0006BEC71E0DF91CF911F910F910C9444108F
:1005B0008FEF9FEFDECF8FEF9FEFF0CF8091D002D4
:1005C0009091D10202978431910508F580569D4F94
:1005D000FC018081082E000C990B41E050E067EF90
:1005E00071E00E9444108091D2029091D302029750
:1005F0008431910578F480569D4FFC018081082E4E
:10060000000C990B41E050E06FE971E0CBCF8FEF28
:100610009FEFE3CF8FEF9FEFF5CF8091D8029091BE
:10062000D90202978431910508F580569D4FFC014F
:100630008081082E000C990B41E050E06FE472E0DD
:100640000E9444108091DA029091DB02029784317B
:10065000910578F480569D4FFC018081082E000C96
:10066000990B41E050E063E771E09CCF8FEF9FEF83
:10067000E3CF8FEF9FEFF5CFDF91CF911F910F91D8
:10068000089523E0880F991F2A95E1F7FC01E853AC
:10069000FD4F848195810895CF92DF92EF92FF9272
:1006A000CF93882351F16A017B01CFEFC80F20E07F
:1006B00030E0A901CB01B6010E943A0E87FF11C0BC
:1006C000C701B60190580E94AB0E9B01AC016C2F84
:1006D00070E090E080E0CF91FF90EF90DF90CF90BE
:1006E000B2C0C701B6010E94A60E8C2FCF91FF9019
:1006F000EF90DF90CF900C94C112CF91FF90EF90CC
:10070000DF90CF9008950F931F938B019C0183E09E
:1007100036952795179507958A95D1F700521D4F65
:10072000462F477021E030E0F90102C0EE0FFF1FB5
:100730004A95E2F7AF01F80120812423CB0101960D
:10074000211102C090E080E01F910F9108950F9356
:100750001F938B019C0183E036952795179507958C
:100760008A95D1F7677081E090E001C0880F6A95A3
:10077000EAF7F801E052FD4F2081452B31F48095D6
:10078000822380831F910F910895822BFACF2F929D
:100790003F924F925F926F927F928F929F92AF9211
:1007A000BF92CF92DF92EF92FF920F931F93CF935E
:1007B000DF93D62EC72E782E692E49015A012801C3
:1007C00061E08D2D0E94FB13CD2DDC2D8E010F5F7E
:1007D0001F4FA8016D2D7C2D872D962DB8DF20E0B1
:1007E00030E0A901C201B7010E94DC0F181664F4C1
:1007F000C201B7010E94AB0E2B01C501B4010E94DA
:10080000AB0EA201CE0123D0C801DF91CF911F9181
:100810000F91FF90EF90DF90CF90BF90AF909F909F
:100820008F907F906F905F904F903F902F900895A2
:10083000882341F08150682F70E090E080E050E024
:1008400040E085CF0895862FB9010C94C1129C0118
:10085000FC01EC51FF4FE491E150E231E0F4F0E0B3
:100860008827EA5CFB4F8F4F0C94351848044F04DF
:10087000520469047E044B0493049F04A304BA0445
:10088000CF04E404FB0410054B0425053C05510589
:1008900084B5806884BD60E0822F0C94371484B5E1
:1008A0008062F8CF809180008C7F8260809380008E
:1008B00080918100807E8061682B609381005093DD
:1008C000870040938600809180008068809380003C
:1008D000E2CF809180008C7F826080938000809145
:1008E0008100807E8061682B609381005093870037
:1008F00040938600809180008062E8CF80918000E4
:100900008C7F82608093800080918100807E8061F6
:10091000682B6093810050938700409386008091FC
:1009200080008860D3CF8091B00080688093B00051
:100930008091B100887F682B6093B100ACCF80912B
:10094000B0008062F3CF809190008C7F82608093B2
:10095000900080919100807E8061682B609391006F
:100960005093970040939600809190008068809308
:10097000900091CF809190008C7F82608093900056
:1009800080919100807E8061682B609391005093EC
:10099000970040939600809190008062E8CF80910C
:1009A00090008C7F82608093900080919100807E87
:1009B0008061682B6093910050939700409396005C
:1009C000809190008860D3CF8091A0008C7F82605E
:1009D0008093A0008091A100807E8061682B60934D
:1009E000A1005093A7004093A6008091A0008068CA
:1009F0008093A00050CF8091A0008C7F8260809374
:100A0000A0008091A100807E8061682B6093A1008E
:100A10005093A7004093A6008091A0008062E8CF89
:100A20008091A0008C7F82608093A0008091A100C3
:100A3000807E8061682B6093A1005093A700409353
:100A4000A6008091A0008860D3CF809120018C7F88
:100A500082608093200180912101807E8061682BDB
:100A6000609321015093270140932601809120013A
:100A70008068809320010FCF809120018C7F82605D
:100A80008093200180912101807E8061682B60939A
:100A9000210150932701409326018091200180621B
:100AA000E8CF809120018C7F82608093200180912B
:100AB0002101807E8061682B609321015093270182
:100AC00040932601809120018860D3CFCF92DF929E
:100AD000EF92FF926B017C019F7720E030E040E8CD
:100AE00059E50E943A0E87FF2BC020E030E040E03D
:100AF0005FE3C701B6010E94DC0F87FD0EC020E056
:100B000030E040E05FE3C701B6010E94C30DFF90F3
:100B1000EF90DF90CF900C94140F20E030E040E095
:100B20005FEBC701B6010E94DC0F181684F420E0C9
:100B300030E0A901C701B6010E94E00F6B017C0102
:100B4000C701B601FF90EF90DF90CF90089520E0AD
:100B500030E040E05FE3C701B6010E94C20DFF90A4
:100B6000EF90DF90CF900C94270E4F925F926F9290
:100B70007F928F929F92AF92BF92CF92DF92EF922D
:100B8000FF920F931F93CF93DF93CDB7DEB762979A
:100B90000FB6F894DEBF0FBECDBFC0903802D09024
:100BA0003902E0903A02F0903B02A7019601609171
:100BB0007B0570917C0580917D0590917E050E945A
:100BC0003A0E882341F0C0927B05D0927C05E092DA
:100BD0007D05F0927E0590E080E053DD9A83898365
:100BE000609188027091890280918A0290918B02B3
:100BF0000E94D90E20E030E040E85CE20E94E00F65
:100C00006B017C0129813A81B901330F880B990B63
:100C10000E94D90E9B01AC01C701B6010E94E00FF2
:100C200069837A838B839C832091A3053091A405EB
:100C30004091A5055091A605609130027091310256
:100C400080913202909133020E94E00F4B015C01CF
:100C5000C0902802D0902902E0902A02F0902B0246
:100C6000AC019B01C701B6010E943A0E87FD0DC081
:100C7000C701B601C4D6811108C0809028029090A7
:100C80002902A0902A02B0902B02C0905402D0906A
:100C90005502E0905602F09057028091A1058823FA
:100CA000E1F089819A81AB81BC8180939705909313
:100CB0009805A0939905B0939A05A7019601BC01E8
:100CC000CD010E94DC0F87FD4FC0C0929705D092E6
:100CD0009805E0929905F0929A0520E030E0A9018C
:100CE00060914C0270914D0280914E0290914F02A2
:100CF000C1D7811104C080919F058823E1F08981CB
:100D00009A81AB81BC818093970590939805A093BD
:100D10009905B0939A05A7019601BC01CD010E94E7
:100D2000DC0F87FD3CC0C0929705D0929805E092F9
:100D30009905F0929A05409097055090980560901B
:100D4000990570909A05A7019601C301B2010E940E
:100D5000DC0F87FD3FC0C0929705D0929805E092C6
:100D60009905F0929A0546C0409058025090590259
:100D700060905A0270905B0229813A814B815C81BC
:100D8000C301B2010E94DC0F87FDA7CF40929705F7
:100D9000509298056092990570929A059ECF409066
:100DA00058025090590260905A0270905B0229815B
:100DB0003A814B815C81C301B2010E94DC0F87FD47
:100DC000BACF40929705509298056092990570921B
:100DD0009A05B1CFC0905802D0905902E0905A02C3
:100DE000F0905B02A7019601C301B20143D7181628
:100DF0000CF0B1CFC0909705D0909805E090990580
:100E0000F0909A0500915C0210915D0290915E0253
:100E10009987A0915F02AD839801492F5A2FB6019F
:100E2000C7010E94DC0F1816ACF00091600210910F
:100E30006102B0916202B987209163022D8398010B
:100E40004B2F5D81B601C70115D787FD03C0860111
:100E5000E986FD8220E030E0A901C501B4010AD78E
:100E600020E030E040E855E2882319F020E030E04F
:100E7000A901C501B40187D69B01AC0160E070E017
:100E800080E89FE3FBD66B017C01980149855D8179
:100E900069817A818B819C8175D6A70196010E9418
:100EA000E00F69877A878B879C87C0903C02D0903F
:100EB0003D02E0903E02F0903F02A7019601609152
:100EC0007105709172058091730590917405D2D669
:100ED000882341F0C0927105D0927205E0927305AB
:100EE000F092740581E090E0CCDB9E838D8360916D
:100EF0008C0270918D0280918E0290918F0259D751
:100F000020E030E040E85CE20E94E00F6B017C01F1
:100F1000AD81BE81BD01BB0F880B990B4AD79B01E8
:100F2000AC01C701B6010E94E00F6D837E838F8301
:100F300098872091AB053091AC054091AD0550915B
:100F4000AE05609134027091350280913602909125
:100F500037020E94E00F4B015C01C0902C02D09040
:100F60002D02E0902E02F0902F02AC019B01C701F0
:100F7000B60180D687FD0DC0C701B60140D58111ED
:100F800008C080902C0290902D02A0902E02B0906C
:100F90002F02C0906C02D0906D02E0906E02F09033
:100FA0006F028091A2058823D9F08D819E81AF8147
:100FB000B88580939B0590939C05A0939D05B09365
:100FC0009E05A7019601BC01CD01F6D787FD4DC056
:100FD000C0929B05D0929C05E0929D05F0929E05E3
:100FE00020E030E0A9016091640270916502809177
:100FF0006602909167023ED6811104C08091A005DF
:101000008823D9F08D819E81AF81B88580939B051F
:1010100090939C05A0939D05B0939E05A701960112
:10102000BC01CD01C9D787FD3AC0C0929B05D092C3
:101030009C05E0929D05F0929E0540909B05509086
:101040009C0560909D0570909E05A7019601C301C7
:10105000B201B2D787FD3DC0C0929B05D0929C05DE
:10106000E0929D05F0929E0544C040907002509021
:10107000710260907202709073022D813E814F81E7
:101080005885C301B20198D787FDAACF40929B052E
:1010900050929C0560929D0570929E05A1CF409054
:1010A00070025090710260907202709073022D81F4
:1010B0003E814F815885C301B2017ED787FDBDCFE8
:1010C00040929B0550929C0560929D0570929E05F2
:1010D000B4CFC0907002D0907102E0907202F09094
:1010E0007302A7019601C301B201C4D518160CF012
:1010F000B3CF70909B0560909C0550909D054090EB
:101100009E05C0907402D0907502E0907602F09037
:1011100077029601A701672D762D852D942D4CD74A
:101120001816ACF0C0907802D0907902E0907A0264
:10113000F0907B029601A701672D762D852D942DC9
:1011400099D587FD04C0C72CD62CE52CF42C20E0C3
:1011500030E0A901C501B4018DD520E030E040E8C0
:1011600055E2882319F020E030E0A901C501B4015F
:101170000AD59B01AC0160E070E080E89FE37ED57A
:101180004B015C019601A7016D817E818F8198855D
:10119000F9D4A501940114D76D877E878F87988B2A
:1011A000209120023091210240912202509123028D
:1011B00069857A858B859C8503D7D62EE72EF82EF8
:1011C000C92E20912402309125024091260250918F
:1011D00027026D857E858F859889F2D6762E672EBB
:1011E000582E492E90911802998BA0911902AA8B22
:1011F00010911A0200911B022D2D3E2D4F2D5C2DBA
:10120000692F7A2F812F902F35D587FD19C0B09186
:101210001002B98B209111022A8B109112020091B9
:1012200013022D2D3E2D4F2D5C2D6B2F7A89812F92
:10123000902FC2D6181624F0D98AEA8A1F2D0C2DB9
:1012400090901C02A0901D02B0901E0280901F0280
:10125000272D362D452D542D692D7A2D8B2D982D2A
:1012600009D587FD17C090901402A0901502B09088
:10127000160280901702272D362D452D542D692DED
:101280007A2D8B2D982D98D6181624F0972CA62CF5
:10129000B52C842C209148023091490240914A0299
:1012A00050914B0269817A818B819C816BD4209112
:1012B0000002309101024091020250910302505805
:1012C0007FD66B017C0160910402709105028091D0
:1012D000060290910702905829893A89412F502F90
:1012E0006FD69B01AC01C701B6014DD46B017C01E7
:1012F000609108027091090280910A0290910B029C
:1013000090582D813E814F8158855AD69B01AC0162
:10131000C701B60138D46B017C0160910C02709159
:101320000D0280910E0290910F029058292D3A2DB6
:101330004B2D582D45D6A701960125D46B017C0174
:10134000AC019B0160917C0270917D0280917E02D4
:1013500090917F028FD487FFBEC080904002909012
:101360004102A0904202B090430231E0398320E074
:1013700030E0A901C501B4017DD4811119826981D0
:1013800088E00E944001C501B401A0DB4B015C0173
:1013900020E030E040E853E46DD46FEF87FF0CC0ED
:1013A00020E030E0A901C501B40106D660E087FD68
:1013B00003C0C501B401CFD487E00E94400165E0BD
:1013C00070E080E090E09FD99A838983909396059E
:1013D00080939505E894F7F8A0908002B090810280
:1013E0000091820210918302A7019601B501C80104
:1013F00041D487FD11C0A0908402B0908502009175
:10140000860210918702A7019601B501C801D4D5C3
:10141000181614F05601870120E030E04FE753E43E
:10142000B501C80127D487FF5FC020E030E0A901E3
:10143000B501C801C1D518160CF05BC0A501B801F3
:1014400089819A8129D91092A105C0904C02D0902F
:101450004D02E0904E02F0904F0220E030E0A901F2
:10146000C701B60107D4811158C0209150023091B4
:101470005102409152025091530269857A858B85C1
:101480009C859ED5209197053091980540919905AE
:1014900050919A0578D34B015C0180929705909208
:1014A0009805A0929905B0929A05409054025090E8
:1014B00055026090560270905702A30192017CD5AC
:1014C00087FD1CC04092970550929805609299053F
:1014D00070929A0522C08090440290904502A0909C
:1014E0004602B090470241CFA12CB12C0FE713E484
:1014F000A5CFA12CB12C00E010E0A0CF4090580265
:101500005090590260905A0270905B02A3019201C0
:10151000C501B401AFD31816ACF620E030E0A90144
:10152000C701B60149D5181624F481E080939F05C0
:1015300014C020E030E0A901C701B6019BD387FFAA
:1015400002C08FEFF3CF20E030E0A901C701B60160
:1015500091D381114AC010929F051092A205C090AC
:101560006402D0906502E0906602F090670220E08D
:1015700030E0A901C701B6017DD3811147C0209198
:1015800068023091690240916A0250916B026D8548
:101590007E858F85988914D520919B0530919C0577
:1015A00040919D0550919E05EED24B015C018092C9
:1015B0009B0590929C05A0929D05B0929E0540903F
:1015C0006C0250906D0260906E0270906F02A301E9
:1015D0009201F2D487FD0BC040929B0550929C056E
:1015E00060929D0570929E0511C082E09FCF409051
:1015F0007002509071026090720270907302A301A9
:101600009201C501B40136D3181634F720E030E05A
:10161000A901C701B601D0D4181624F481E0809343
:10162000A00514C020E030E0A901C701B60122D313
:1016300087FF02C08FEFF3CF20E030E0A901C701A0
:10164000B60118D3811119C01092A00562960FB689
:10165000F894DEBF0FBECDBFDF91CF911F910F91E8
:10166000FF90EF90DF90CF90BF90AF909F908F90C2
:101670007F906F905F904F90089582E0D0CF4F920F
:101680005F926F927F928F929F92AF92BF92DF9202
:10169000EF92FF920F931F93CF93DF9384E090E03C
:1016A0005DD18091C3059091C405A091C505B0910D
:1016B000C60500E012E0F801808B918BA28BB38B02
:1016C000848B958BA68BB78B4091BB055091BC0545
:1016D0006091BD057091BE05408F518F628F738FF1
:1016E000448F558F668F778F4093540250935502E5
:1016F0006093560270935702809358029093590258
:10170000A0935A02B0935B0240935C0250935D0237
:1017100060935E0270935F02809360029093610217
:10172000A0936202B093630240936C0250936D02E7
:1017300060936E0270936F028093700290937102B7
:10174000A0937202B0937302409374025093750297
:101750006093760270937702809378029093790277
:10176000A0937A02B0937B02CBE6D5E01A8680ADD7
:1017700091ADA2ADB3AD888B998BAA8BBB8B812C1D
:10178000912C540183948B869C86AD86BE8642E163
:1017900050E063E170E090E080E00E947B02DD2495
:1017A000D394DF8693EAE92E95E0F92E2FE6422EB8
:1017B00022E1522E23E8622E2AE3722EF7014082A4
:1017C0005182628273821482158216821782188275
:1017D000F80184AD95ADA6ADB7AD8E839F83A88784
:1017E000B98789829A82AB82BC8242E050E063E092
:1017F00070E081E090E00E947B02DD82F70140868C
:1018000051866286738614861586168617861C8E08
:101810008D8E9E8EAF8EB8A261E088E00E94380166
:10182000D9A21C8A8D8A9E8AAF8AB88E61E087E031
:101830000E943801D98E1CA219A68DA29EA2AFA229
:10184000B8A6E12CF12C8701A801970165E070E0B2
:1018500080E090E00E94C7039BA78AA7D9A6DEAAD2
:10186000DFAADF91CF911F910F91FF90EF90DF9052
:10187000BF90AF909F908F907F906F905F904F90B0
:10188000089580917505811103C081E080937505ED
:1018900080916B05811103C081E080936B0580917D
:1018A0008705811103C081E08093870580917F05C2
:1018B000811103C081E080937F0580918F058111A4
:1018C0002EC081E080938F058091900590919105C5
:1018D000A0919205B09193050197A105B105F9F486
:1018E000809194058823D9F065E070E080E090E075
:1018F0000E948303909396058093950540E050E005
:10190000BA010E944C0365E070E080E090E00E9424
:10191000830390939605809395050C94180408957D
:1019200060E070E080E89FE7089560E070E080E8A4
:101930009FE7089560E070E080E89FEF089560E021
:1019400070E080E89FEF089560E070E080EC9FEF2A
:10195000089560E070E080EC9FEF0895F5DF6093FC
:10196000BF057093C0058093C1059093C205F1DF58
:101970006093B3057093B4058093B5059093B60555
:10198000CFDF6093BB057093BC058093BD0590933A
:10199000BE05CBDF6093B7057093B8058093B9059A
:1019A0009093BA05C7DF6093C3057093C405809315
:1019B000C5059093C605C3DF6093C7057093C8053E
:1019C0008093C9059093CA0508950F931F938B01C7
:1019D0009C010027112720783F7701151105204829
:1019E0003F4749F4AB01BC016F77772781E0452B76
:1019F000462B472B09F480E01F910F910895E5CF06
:101A000040E855E260E070E090E080E000C08130A6
:101A1000910579F01CF4892B39F0089582309105F5
:101A200061F0039771F0089526E087EF92E00C943F
:101A3000561526E084E993E0FACF26E081E394E0AE
:101A4000F6CF26E08EEC94E0F2CF1F920F920FB605
:101A50000F9211240BB60F922F933F934F935F93E6
:101A60006F937F938F939F93AF93BF93EF93FF9366
:101A700086E09FEF909325018093240134D0FF915D
:101A8000EF91BF91AF919F918F917F916F915F91F6
:101A90004F913F912F910F900BBE0F900FBE0F9063
:101AA0001F90189586E09FEF909325018093240165
:101AB000A3E7B0E08C918E7F8C93E0E2F1E080812F
:101AC0008C7F8083E1E2F1E08081877E808380816A
:101AD0008360808380818B7F80838C9181608C93F5
:101AE000089581E008958091EB0291E0980F909322
:101AF000EB02882349F021E030E03093ED0220939F
:101B0000EC028093EB02089578942FD8F89480919A
:101B1000EB028150F6CFCF93DF931092CC05109259
:101B2000CB05CDD46DDFC091B402D091B50219823E
:101B30001882A5DDF894B6DF81E028813981232B56
:101B400009F080E08093CB05789478948091CB0560
:101B5000811107C096DEF89490E080E0DF91CF918C
:101B6000089581E028813981232B09F480E0809356
:101B7000CC059091CC0581E0911180E08093CB055C
:101B8000B0DFE4CF5058BB27AA270ED0C4C1B5D1CF
:101B900030F0BAD120F031F49F3F11F41EF4AAC105
:101BA0000EF4E095E7FB77C1E92FC6D180F3BA17B1
:101BB000620773078407950718F071F49EF5F5C165
:101BC0000EF4E0950B2EBA2FA02D0B01B901900158
:101BD0000C01CA01A0011124FF27591B99F0593F9C
:101BE00050F4503E68F11A16F040A22F232F342FE4
:101BF0004427585FF3CF469537952795A795F04032
:101C00005395C9F77EF41F16BA0B620B730B840B46
:101C1000BAF09150A1F0FF0FBB1F661F771F881FFE
:101C2000C2F70EC0BA0F621F731F841F48F4879556
:101C300077956795B795F7959E3F08F0B3CF939545
:101C4000880F08F09927EE0F97958795089596D1FC
:101C500080F09F3740F491110EF4A8C160E070E06D
:101C600080E89FE3089526F01B16611D711D811DFC
:101C700018C132C1ECD008F481E008950CD04BC1FA
:101C800043D140F03AD130F021F45F3F19F003C165
:101C900051118CC12FC150D198F39923C9F3552309
:101CA000B1F3951B550BBB27AA276217730784074F
:101CB00038F09F5F5F4F220F331F441FAA1FA9F305
:101CC00033D00E2E3AF0E0E830D091505040E695F7
:101CD000001CCAF729D0FE2F27D0660F771F881F58
:101CE000BB1F261737074807AB07B0E809F0BB0B47
:101CF000802DBF01FF2793585F4F2AF09E3F51056B
:101D000068F0C9C053C15F3FECF3983EDCF38695A1
:101D100077956795B795F7959F5FC9F7880F911DE0
:101D20009695879597F90895E1E0660F771F881FCC
:101D3000BB1F621773078407BA0720F0621B730B7F
:101D4000840BBA0BEE1F88F7E095089504D06894D1
:101D5000B1112CC10895F8D088F09F5790F0B92F99
:101D60009927B751A0F0D1F0660F771F881F991FF0
:101D70001AF0BA95C9F712C0B13081F016D1B1E0AE
:101D8000089513C1672F782F8827B85F39F0B93FBE
:101D9000CCF3869577956795B395D9F73EF49095F2
:101DA0008095709561957F4F8F4F9F4F0895E89470
:101DB00009C097FB3EF490958095709561957F4F93
:101DC0008F4F9F4F9923A9F0F92F96E9BB27939541
:101DD000F695879577956795B795F111F8CFFAF451
:101DE000BB0F11F460FF1BC06F5F7F4F8F4F9F4F82
:101DF00016C0882311F096E911C0772321F09EE8E0
:101E0000872F762F05C0662371F096E8862F70E045
:101E100060E02AF09A95660F771F881FDAF7880F1F
:101E20009695879597F90895A9D080F09F3740F44B
:101E300091110EF0BBC060E070E080E89FEB089568
:101E400026F41B16611D711D811D2BC045C0990F05
:101E50000008550FAA0BE0E8FEEF16161706E80774
:101E6000F907C0F012161306E407F50798F0621B95
:101E7000730B840B950B39F40A2661F0232B242B6A
:101E8000252B21F408950A2609F4A140A6958FEF89
:101E9000811D811D089597F99F6780E870E060E0DB
:101EA0000895882371F4772321F09850872B762F9B
:101EB00007C0662311F499270DC09051862B70E05E
:101EC00060E02AF09A95660F771F881FDAF7880F6F
:101ED0009695879597F908959F3F31F0915020F49A
:101EE000879577956795B795880F911D96958795F6
:101EF00097F908959FEF80EC089500240A94161630
:101F0000170618060906089500240A9412161306E7
:101F1000140605060895092E0394000C11F4882375
:101F200052F0BB0F40F4BF2B11F460FF04C06F5F91
:101F30007F4F8F4F9F4F089557FD9058440F551F67
:101F400059F05F3F71F04795880F97FB991F61F03B
:101F50009F3F79F087950895121613061406551FB2
:101F6000F2CF4695F1DF08C0161617061806991F1E
:101F7000F1CF86957105610508940895E5DFA0F01D
:101F8000BEE7B91788F4BB279F3860F41616B11D59
:101F9000672F782F8827985FF7CF86957795679575
:101FA000B11D93959639C8F30895E894BB27662729
:101FB0007727CB0197F908954ADF08F48FEF08954A
:101FC0000BD0A9CF9ADF28F09FDF18F0952309F0F6
:101FD00062CF90CF1124EACFAFDFA0F3959FD1F36A
:101FE000950F50E0551F629FF001729FBB27F00DC7
:101FF000B11D639FAA27F00DB11DAA1F649F66271C
:10200000B00DA11D661F829F2227B00DA11D621F6A
:10201000739FB00DA11D621F839FA00D611D221F24
:10202000749F3327A00D611D231F849F600D211D08
:10203000822F762F6A2F11249F5750408AF0E1F0AB
:1020400088234AF0EE0FFF1FBB1F661F771F881FF4
:1020500091505040A9F79E3F510570F01CCFA6CF7C
:102060005F3FECF3983EDCF3869577956795B795DF
:10207000F795E7959F5FC1F7FE2B880F911D969509
:10208000879597F908950895883008F075C0E82F6E
:10209000F0E0EE0FFF1FE057FD4F7183608381502A
:1020A000873008F03CC0E82FF0E08827E65AFF4E62
:1020B0008F4FDBC797106110691075108210A31045
:1020C000B010809169008C7F482B40936900E89A9A
:1020D000089580916900837F440F551F440F551F59
:1020E000482B40936900E99A0895809169008F7C9C
:1020F00074E0440F551F7A95E1F7482B409369002F
:10210000EA9A0895809169008F7366E0440F551F25
:102110006A95E1F7482B40936900EB9A0895809106
:102120006A008C7F482B40936A00EC9A0895809156
:102130006A00837F440F551F440F551F482B40935F
:102140006A00ED9A089580916A008F7C24E0440F24
:10215000551F2A95E1F7482B40936A00EE9A08959F
:1021600080916A008F7396E0440F551F9A95E1F7AE
:10217000482B40936A00EF9A08951F920F920FB672
:102180000F9211240BB60F922F933F934F935F93AF
:102190006F937F938F939F93AF93BF93EF93FF932F
:1021A000E0919402F09195021995FF91EF91BF9102
:1021B000AF919F918F917F916F915F914F913F91DF
:1021C0002F910F900BBE0F900FBE0F901F90189580
:1021D0001F920F920FB60F9211240BB60F922F93EE
:1021E0003F934F935F936F937F938F939F93AF939F
:1021F000BF93EF93FF93E0919602F09197021995A8
:10220000FF91EF91BF91AF919F918F917F916F91CE
:102210005F914F913F912F910F900BBE0F900FBE8A
:102220000F901F9018951F920F920FB60F921124C6
:102230000BB60F922F933F934F935F936F937F93C0
:102240008F939F93AF93BF93EF93FF93E091980287
:10225000F09199021995FF91EF91BF91AF919F91E4
:102260008F917F916F915F914F913F912F910F903F
:102270000BBE0F900FBE0F901F9018951F920F92DC
:102280000FB60F9211240BB60F922F933F934F93DB
:102290005F936F937F938F939F93AF93BF93EF93CE
:1022A000FF93E0919A02F0919B021995FF91EF91B3
:1022B000BF91AF919F918F917F916F915F914F915E
:1022C0003F912F910F900BBE0F900FBE0F901F905C
:1022D00018951F920F920FB60F9211240BB60F9202
:1022E0002F933F934F935F936F937F938F939F931E
:1022F000AF93BF93EF93FF93E0919002F09191021F
:102300001995FF91EF91BF91AF919F918F917F911F
:102310006F915F914F913F912F910F900BBE0F9056
:102320000FBE0F901F9018951F920F920FB60F922D
:1023300011240BB60F922F933F934F935F936F939C
:102340007F938F939F93AF93BF93EF93FF93E0910E
:102350009202F09193021995FF91EF91BF91AF9185
:102360009F918F917F916F915F914F913F912F91AD
:102370000F900BBE0F900FBE0F901F9018951F92DD
:102380000F920FB60F9211240BB60F922F933F931B
:102390004F935F936F937F938F939F93AF93BF936D
:1023A000EF93FF93E0919C02F0919D021995FF91AC
:1023B000EF91BF91AF919F918F917F916F915F91BD
:1023C0004F913F912F910F900BBE0F900FBE0F902A
:1023D0001F9018951F920F920FB60F9211240BB6F3
:1023E0000F922F933F934F935F936F937F938F93AE
:1023F0009F93AF93BF93EF93FF93E0919E02F09171
:102400009F021995FF91EF91BF91AF919F918F918D
:102410007F916F915F914F913F912F910F900BBEE4
:102420000F900FBE0F901F9018951F920F920FB62E
:102430000F9211242F933F938F939F93AF93BF934A
:102440008091EF029091F002A091F102B091F2021E
:102450003091EE0223E0230F2D3758F50196A11D90
:10246000B11D2093EE028093EF029093F002A093AF
:10247000F102B093F2028091F3029091F402A091E4
:10248000F502B091F6020196A11DB11D8093F302F1
:102490009093F402A093F502B093F602BF91AF912E
:1024A0009F918F913F912F910F900FBE0F901F9092
:1024B000189526E8230F0296A11DB11DD2CF78945E
:1024C00084B5826084BD84B5816084BD85B5826039
:1024D00085BD85B5816085BDEEE6F0E080818160D7
:1024E0008083E1E8F0E010828081826080838081D7
:1024F00081608083E0E8F0E0808181608083E1EBAF
:10250000F0E0808184608083E0EBF0E08081816096
:102510008083E1E9F0E08081826080838081816056
:102520008083E0E9F0E0808181608083E1EAF0E08F
:10253000808182608083808181608083E0EAF0E036
:10254000808181608083E1E2F1E08081826080832C
:10255000808181608083E0E2F1E08081816080831E
:10256000EAE7F0E0808184608083808182608083FC
:102570008081816080838081806880831092C10027
:1025800008951F93CF93DF93182FEB0161E033D1B0
:10259000209731F460E0812FDF91CF911F9167C1C7
:1025A000CF3FD10511F461E0F6CFE12FF0E0EC511F
:1025B000FF4FE491E150E23108F0B2C0F0E088272B
:1025C000EC51FD4E8F4F51C5F612FE1203130D1341
:1025D000171390132113291331133B1345134F1372
:1025E0005E136813901372137C13861384B580688E
:1025F00084BDC7BDDF91CF911F91089584B58062DE
:1026000084BDC8BDF7CF8091800080688093800032
:10261000D0938900C0938800EDCF809180008062C4
:1026200080938000D0938B00C0938A00E3CF809189
:102630008000886080938000D0938D00C0938C00D0
:10264000D9CF8091B00080688093B000C093B30070
:10265000D1CF8091B00080628093B000C093B4006D
:10266000C9CF80919000806880939000D0939900AA
:10267000C0939800BFCF80919000806280939000BB
:10268000D0939B00C0939A00B5CF80919000886052
:1026900080939000D0939D00C0939C00ABCF80911D
:1026A000A00080688093A0008091A0008F7B809321
:1026B000A000D093A900C093A8009CCF8091A00057
:1026C00080628093A000D093AB00C093AA0092CF09
:1026D0008091A00088608093A000D093AD00C0934B
:1026E000AC0088CF80912001806880932001D09336
:1026F0002901C09328017ECF8091200180628093C0
:102700002001D0932B01C0932A0174CF8091200126
:10271000886080932001D0932D01C0932C016ACF53
:10272000C038D1050CF03FCF35CF8150823108F051
:1027300059C0E82FF0E08827E056FC4E8F4F95C433
:10274000C013C413B213B813BC13F213C713CD13C1
:10275000D113D713DB13DF13E513E913F213ED13D2
:10276000F313F713809180008F7780938000089592
:10277000809180008F7DF9CF80918000877FF5CF99
:1027800084B58F7784BD089584B58F7DFBCF80910C
:10279000B0008F778093B00008958091B0008F7D56
:1027A000F9CF809190008F77809390000895809169
:1027B00090008F7DF9CF80919000877FF5CF809139
:1027C000A0008F778093A00008958091A0008F7D56
:1027D000F9CF8091A000877FF5CF809120018F777E
:1027E000809320010895809120018F7DF9CF809101
:1027F0002001877FF5CFCF93DF9390E0FC01E65D6A
:10280000FE4F249180599E4FFC0184918823C9F08A
:1028100090E0880F991FFC01E651FE4FA591B491FD
:10282000FC01E053FE4FC591D49161110DC09FB7DB
:10283000F8948C91209582238C9388812823288377
:102840009FBFDF91CF910895623051F49FB7F89404
:102850003C91822F809583238C93E8812E2BEFCFA0
:102860008FB7F894EC912E2B2C938FBFEACF1F9348
:10287000CF93DF93282F30E0F901EC51FF4F849183
:10288000F901E65DFE4FD491F901E059FE4FC49184
:10289000CC23A1F0162F811148DFEC2FF0E0EE0FD2
:1028A000FF1FE053FE4FA591B4918FB7F894EC91C0
:1028B000111108C0D095DE23DC938FBFDF91CF913B
:1028C0001F910895DE2BF8CFCF93DF93282F30E0B0
:1028D000F901EC51FF4F8491F901E65DFE4FD4916F
:1028E000F901E059FE4FC491CC2399F081111DDF0D
:1028F000EC2FF0E0EE0FFF1FEA54FE4FA591B491CC
:10290000EC91ED2381E090E009F480E0DF91CF913C
:10291000089580E090E0FACFFC01918D228D892FFF
:1029200090E0805C9F4F821B91098F7399270895D7
:10293000FC01918D828D981731F0828DE80FF11D89
:10294000858D90E008958FEF9FEF0895FC01918DA4
:10295000828D981761F0A28DAE0FBF2FB11D5D96CD
:102960008C91928D9F5F9F73928F90E008958FEF6F
:102970009FEF0895FC01538D448D252F30E0842F67
:1029800090E0821B930B541710F0CF960895019797
:102990000895FC01A48DA80FB92FB11DA35ABF4FF4
:1029A0002C91848D90E001968F739927848FA6894E
:1029B000B7892C93A089B1898C91837080648C93A2
:1029C000938D848D981306C00288F389E02D808151
:1029D0008F7D80830895CF93DF93EC01888D8823CA
:1029E000B1F0AA89BB89E889F9898C9185FD03C07A
:1029F000808186FD0CC00FB607FCF7CF8C9185FF58
:102A0000F2CF808185FFEDCFCE01C3DFEACFDF912A
:102A1000CF910895EF92FF920F931F93CF93DF937F
:102A2000EC0181E0888F9B8D8C8D98131AC0E8890A
:102A3000F989808185FF15C09FB7F894EE89FF89D9
:102A40006083E889F98980818370806480839FBF77
:102A500081E090E0DF91CF911F910F91FF90EF9077
:102A60000895F62E0B8D10E00F5F1F4F0F73112787
:102A7000E02E8C8D8E110BC00FB607FCFACFE889C3
:102A8000F989808185FFF5CFCE0183DFF2CFEB8D11
:102A9000EC0FFD2FF11DE35AFF4FF0829FB7F89422
:102AA0000B8FEA89FB8980818062D0CFCF92DF9241
:102AB000EF92FF921F93CF93DF93EC016A017B01AA
:102AC000122FE889F98982E08083C11481EED8064B
:102AD000E104F10499F060E079E08DE390E0A70172
:102AE0009601A1D2215031094109510956954795C6
:102AF00037952795211580E1380790F0E889F98905
:102B0000108260E874E88EE190E0A70196018BD214
:102B10002150310941095109569547953795279517
:102B2000EC85FD853083EE85FF852083188EEC894A
:102B3000FD891083EA89FB89808180618083EA892D
:102B4000FB89808188608083EA89FB898081806835
:102B50008083EA89FB8980818F7D8083DF91CF919B
:102B60001F91FF90EF90DF90CF9008951F920F92EA
:102B70000FB60F9211240BB60F922F938F939F9342
:102B8000EF93FF93E0910703F09108038081E091B8
:102B90000D03F0910E0382FD1DC090818091100302
:102BA0008F5F8F7320911103821741F0E091100322
:102BB000F0E0E950FD4F958F80931003FF91EF9166
:102BC0009F918F912F910F900BBE0F900FBE0F9082
:102BD0001F9018958081F2CF1F920F920FB60F921F
:102BE00011240BB60F922F933F934F935F936F93E4
:102BF0007F938F939F93AF93BF93EF93FF9387EF51
:102C000092E0C7DEFF91EF91BF91AF919F918F91BD
:102C10007F916F915F914F913F912F910F900BBEDC
:102C20000F900FBE0F901F901895E7EFF2E0138200
:102C3000128288EE93E0A0E0B0E084839583A683BF
:102C4000B7838AEB92E09183808385EC90E095874F
:102C5000848784EC90E09787868780EC90E0918B66
:102C6000808B81EC90E0938B828B82EC90E0958B53
:102C7000848B86EC90E0978B868B118E128E138E50
:102C8000148E08951F920F920FB60F9211240BB657
:102C90000F922F938F939F93EF93FF93E091A40351
:102CA000F091A5038081E091AA03F091AB0382FD2E
:102CB0001DC090818091AD038F5F8F732091AE0313
:102CC000821741F0E091AD03F0E0EC56FC4F958F98
:102CD0008093AD03FF91EF919F918F912F910F9072
:102CE0000BBE0F900FBE0F901F9018958081F2CFF2
:102CF0001F920F920FB60F9211240BB60F922F93C3
:102D00003F934F935F936F937F938F939F93AF9373
:102D1000BF93EF93FF9384E993E03BDEFF91EF9144
:102D2000BF91AF919F918F917F916F915F914F91E3
:102D30003F912F910F900BBE0F900FBE0F901F90E1
:102D40001895E4E9F3E01382128288EE93E0A0E0A4
:102D5000B0E084839583A683B7838AEB92E0918366
:102D600080838DEC90E0958784878CEC90E097874A
:102D7000868788EC90E0918B808B89EC90E0938B38
:102D8000828B8AEC90E0958B848B8EEC90E0978B15
:102D9000868B118E128E138E148E08951F920F92B1
:102DA0000FB60F9211240BB60F922F938F939F9310
:102DB000EF93FF93E0914104F09142048081E09110
:102DC0004704F091480482FD1DC0908180914A041F
:102DD0008F5F8F7320914B04821741F0E0914A047A
:102DE000F0E0EF5CFB4F958F80934A04FF91EF91E9
:102DF0009F918F912F910F900BBE0F900FBE0F9050
:102E00001F9018958081F2CF1F920F920FB60F92EC
:102E100011240BB60F922F933F934F935F936F93B1
:102E20007F938F939F93AF93BF93EF93FF9381E330
:102E300094E0AFDDFF91EF91BF91AF919F918F91A2
:102E40007F916F915F914F913F912F910F900BBEAA
:102E50000F900FBE0F901F901895E1E3F4E01382DE
:102E6000128288EE93E0A0E0B0E084839583A6838D
:102E7000B7838AEB92E09183808385ED90E095871C
:102E8000848784ED90E09787868780ED90E0918B32
:102E9000808B81ED90E0938B828B82ED90E0958B1F
:102EA000848B86ED90E0978B868B118E128E138E1D
:102EB000148E08951F920F920FB60F9211240BB625
:102EC0000F922F938F939F93EF93FF93E091DE04E4
:102ED000F091DF048081E091E404F091E50482FD4B
:102EE0001DC090818091E7048F5F8F732091E8046B
:102EF000821741F0E091E704F0E0E253FB4F958F39
:102F00008093E704FF91EF919F918F912F910F9004
:102F10000BBE0F900FBE0F901F9018958081F2CFBF
:102F20001F920F920FB60F9211240BB60F922F9390
:102F30003F934F935F936F937F938F939F93AF9341
:102F4000BF93EF93FF938EEC94E023DDFF91EF911D
:102F5000BF91AF919F918F917F916F915F914F91B1
:102F60003F912F910F900BBE0F900FBE0F901F90AF
:102F70001895EEECF4E01382128288EE93E0A0E064
:102F8000B0E084839583A683B7838AEB92E0918334
:102F9000808385E391E09587848784E391E0978738
:102FA000868780E391E0918B808B81E391E0938B26
:102FB000828B82E391E0958B848B86E391E0978B03
:102FC000868B118E128E138E148E0895AF92BF923F
:102FD000CF92DF92EF92FF920F931F93CF93DF93E5
:102FE0006C017B018B01040F151FEB015E01AE1814
:102FF000BF08C017D10759F06991D601ED91FC9136
:103000000190F081E02DC6011995892B79F7C50152
:10301000DF91CF911F910F91FF90EF90DF90CF90B4
:10302000BF90AF900895A1E21A2EAA1BBB1BFD0111
:103030000DC0AA1FBB1FEE1FFF1FA217B307E40797
:10304000F50720F0A21BB30BE40BF50B661F771FEF
:10305000881F991F1A9469F76095709580959095CF
:103060009B01AC01BD01CF010895EE0FFF1F881F2A
:0E3070008BBF0790F691E02D1994F894FFCFD6
:10307E00C2624A40F5931242243A07441F1A89420B
:10308E000000000000000000000000000000000032
:10309E000000803F0000803F6F12833A6F12833A28
:1030AE0000002041000020416F12833A6F12833AD4
:1030BE00000000000000803F000000000000000043
:1030CE006F12833A000000000000000000000000B4
:1030DE0000000000000000006F12833A00000000A4
:1030EE0000000000000000000000000000000000D2
:1030FE0000007F430000A042C4B99141891A7D4768
:10310E004310431043104310431043104310431019
:10311E000001FFFFFFFFFFFFFFFFFFFFFFFFFFFFAE
:10312E0005040302E902000000000A15E617BA14AE
:08313E00EB148C14A614981484
:00000001FF
